:020000040800F2
:1000000000000120050300080B030008110300088D
:1000100033030008390300085B03000800000000F8
:100020000000000000000000000000007D03000848
:100030008303000800000000890300088F03000804
:10004000AD030008AD030008AD030008AD030008D0
:10005000AD030008AD030008C5050008150600083B
:10006000AD030008AD030008AD030008AD030008B0
:10007000AD030008AD030008AD030008AD030008A0
:10008000AD030008AD030008AD0300080000000048
:10009000000000000000000000000000AD030008A8
:1000A000AD030008AD030008AD030008AD03000870
:1000B000AD030008AD030008AD030008AD03000860
:1000C000AD030008AD030008AD030008AD03000850
:1000D000AD030008AD030008AD03000800000000F8
:1000E000AD030008AD030008AD03000800000000E8
:1000F000000000000000000000000000AD03000848
:1001000000000000AD030008AD030008AD030008C7
:1001100000000000000000000000000000000000DF
:10012000AD030008AD030008AD030008AD030008EF
:10013000AD03000800000000000000000000000007
:10014000000000000000000000000000AD030008F7
:10015000AD030008AD030008AD030008AD030008BF
:10016000AD030008AD03000800000000000000001F
:10017000000000000000000000000000000000007F
:1001800000000000AD0300080000000000000000B7
:10019000AD03000880B596B000AF00F037F94F4BC3
:1001A0007B6524E07B6D1A1D7A651B683B647B6D63
:1001B0001A1D7A651B68FB637B6D1A1D7A651B68C7
:1001C000BB633B6C7B63FB6B3B63BB6BFB623B6B5F
:1001D000BB6207E07A6B131D7B63BB6A191DB962B2
:1001E00012681A60FA6ABB6A9A42F3D800BF7B6D44
:1001F0003B4A9342D6D33B4B3B651AE03B6D1A1DFD
:100200003A651B68BB643B6D1A1D3A651B687B64CD
:10021000BB6C7B627B6C3B627B6AFB6104E0FB69CD
:100220001A1DFA6100221A603A6AFB699A42F6D8EE
:1002300000BF3B6D2C4A9342E0D300F0F5F83A1D25
:1002400007F108031146184600F0CEF8274A284B5C
:10025000D31A9B103B610023FB6007E0244AFB6834
:1002600052F823309847FB680133FB603A69FB681A
:100270009A42F3DC1F4A204BD31A9B103B610023A8
:10028000FB6007E01C4AFB6852F823309847FB6884
:100290000133FB603A69FB689A42F3DC00BFBB683C
:1002A0007A681146184600F06BF9F864134A144B4B
:1002B000D31A9B10BB61BB697B6108E07B69013B82
:1002C0000F4A52F8233098477B69013B7B617B6979
:1002D000002BF3DC00BFF86C00F080F8B4030008DA
:1002E000CC030008CC030008DC030008DC03000892
:1002F000DC030008DC030008DC030008DC03000862
:10030000DC0300082548004700BF80B400AFFEE7CB
:100310001EF0040F0CBFEFF30880EFF30980714665
:100320001F4A104700BF80B483B000AF78603960C7
:10033000FEE780B400AFFEE71EF0040F0CBFEFF342
:100340000880EFF309807146164A104700BF80B459
:1003500083B000AF78603960FEE71EF0040F0CBF79
:10036000EFF30880EFF3098071460F4A104700BF92
:1003700080B483B000AF78603960FEE780B400AF2E
:10038000FEE780B400AFFEE780B400AFFEE780B4C4
:1003900000AF00BFBD4680BC70470000950100085B
:1003A000270300084F0300087103000880B400AF62
:0203B000FEE766
:1003B400B01000080000002018000020B010000851
:1003C4000000001000000010180000202000002091
:0803D400000000100000001001
:1003DC0080B582B000AF786000F03CF880B483B098
:1003EC0000AF786039607B6801221A603B68034A71
:1003FC001A6000BF0C37BD4680BC7047000000205F
:10040C0080B500AF00F02AF8024B034A9A6000BF97
:10041C0080BD00BF00ED00E00000000880B500AF1B
:10042C0000F028F800BF80BD80B400AFBFF34F8F41
:10043C0000BF064BDB6803F4E0620449044B134332
:10044C00CB60BFF34F8F00BF00BFFDE700ED00E0B6
:10045C000400FA0580B500AFFFF7E6FF80B400AFEB
:10046C00034B4FF000629A6000BFBD4680BC7047E2
:10047C0000ED00E080B487B000AF00233B610023A7
:10048C007B610223FB600023BB6002237B60344B47
:10049C009B6803F00C033B613B69082B11D03B6953
:1004AC00082B44D83B69002B03D03B69042B04D0A8
:1004BC003DE02C4B2C4A1A603DE02A4B2B4A1A602B
:1004CC0039E0274B5B689B0D03F00103BB60244BA9
:1004DC005B6803F03F037B60BB68002B0CD0234AA6
:1004EC007B68B2FBF3F31E4A52689209C2F308020E
:1004FC0002FB03F37B610BE01B4A7B68B2FBF3F35B
:10050C00174A52689209C2F3080202FB03F37B619B
:10051C00134B5B681B0C03F0030301335B00FB60A4
:10052C007A69FB68B2FBF3F30E4A136003E00D4BE0
:10053C000D4A1A6000BF0A4B9B681B0903F00F039E
:10054C000B4AD35C3B61074B1A683B6922FA03F3F5
:10055C00044A136000BF1C37BD4680BC704700BF07
:10056C0000380240080000200024F40000127A0039
:10057C00A010000880B582B002AF00F031FB082259
:10058C000221432000F068F801230093012300228C
:10059C000021412000F014FC002000F04DFD01234F
:1005AC000093012300220121412000F009FC0120CD
:1005BC0000F042FDFEE7000080B500AF012000F026
:1005CC0051FD0F4B1B6801330D4A13600C4B1B681C
:1005DC00092B02DD0A4B00221A60094B1B68DBB2A7
:1005EC001A460221432000F075F8012000F024FD8A
:1005FC00044B5B69034A43F00103536100BF80BDA8
:10060C001C000020003C014080B500AF002000F031
:10061C0029FD0F4B1B68013B0D4A13600C4B1B68EB
:10062C00002B02DA0A4B09221A60094B1B68DBB259
:10063C001A460221432000F04DF8002000F0FCFC8B
:10064C00044B5B69034A43F00103536100BF80BD57
:10065C001C000020003C014080B584B000AF034674
:10066C00FB710B46BB7113467B71FB79413B032B32
:10067C001AD801A252F823F0950600089D0600082E
:10068C00A5060008AD060008002000F0B7FA0BE044
:10069C00012000F0B3FA07E0022000F0AFFA03E00B
:1006AC00032000F0ABFA00BFBB79FB6009E0FB68EC
:1006BC00D9B200230122432000F0F4FAFB68013385
:1006CC00FB607B79FA689A42F1D900BF00BF103702
:1006DC00BD4680BD80B582B000AF0346FB710B46B2
:1006EC00BB7113467B717B79092B00F23D8201A211
:1006FC0052F823F02907000897070008050800089E
:10070C0073080008E10800084F090008BD0900083B
:10071C002B0A0008990A0008070B0008B979FB7925
:10072C000122184600F020FBBB790133D9B2FB79CA
:10073C000122184600F018FBBB790233D9B2FB79C1
:10074C000122184600F010FBBB790333D9B2FB79B8
:10075C000122184600F008FBBB790433D9B2FB79AF
:10076C000122184600F000FBBB790533D9B2FB79A6
:10077C000122184600F0F8FABB790633D9B2FB799E
:10078C000022184600F0F0FA25E2B979FB79002234
:10079C00184600F0E9FABB790133D9B2FB79012292
:1007AC00184600F0E1FABB790233D9B2FB79012289
:1007BC00184600F0D9FABB790333D9B2FB79002281
:1007CC00184600F0D1FABB790433D9B2FB79002278
:1007DC00184600F0C9FABB790533D9B2FB7900226F
:1007EC00184600F0C1FABB790633D9B2FB79002266
:1007FC00184600F0B9FAEEE1B979FB7901221846F6
:10080C0000F0B2FABB790133D9B2FB790122184658
:10081C0000F0AAFABB790233D9B2FB790022184650
:10082C0000F0A2FABB790333D9B2FB790122184646
:10083C0000F09AFABB790433D9B2FB79012218463D
:10084C0000F092FABB790533D9B2FB790022184635
:10085C0000F08AFABB790633D9B2FB79012218462B
:10086C0000F082FAB7E1B979FB790122184600F061
:10087C007BFABB790133D9B2FB790122184600F01F
:10088C0073FABB790233D9B2FB790122184600F016
:10089C006BFABB790333D9B2FB790122184600F00D
:1008AC0063FABB790433D9B2FB790022184600F005
:1008BC005BFABB790533D9B2FB790022184600F0FC
:1008CC0053FABB790633D9B2FB790122184600F0F2
:1008DC004BFA80E1B979FB790022184600F044FA12
:1008EC00BB790133D9B2FB790122184600F03CFAEE
:1008FC00BB790233D9B2FB790122184600F034FAE5
:10090C00BB790333D9B2FB790022184600F02CFADC
:10091C00BB790433D9B2FB790022184600F024FAD3
:10092C00BB790533D9B2FB790122184600F01CFAC9
:10093C00BB790633D9B2FB790122184600F014FAC0
:10094C0049E1B979FB790122184600F00DFABB791F
:10095C000133D9B2FB790022184600F005FABB79B5
:10096C000233D9B2FB790122184600F0FDF9BB79AC
:10097C000333D9B2FB790122184600F0F5F9BB79A3
:10098C000433D9B2FB790022184600F0EDF9BB799B
:10099C000533D9B2FB790122184600F0E5F9BB7991
:1009AC000633D9B2FB790122184600F0DDF912E1C9
:1009BC00B979FB790122184600F0D6F9BB790133DD
:1009CC00D9B2FB790022184600F0CEF9BB7902337C
:1009DC00D9B2FB790122184600F0C6F9BB79033372
:1009EC00D9B2FB790122184600F0BEF9BB79043369
:1009FC00D9B2FB790122184600F0B6F9BB79053360
:100A0C00D9B2FB790122184600F0AEF9BB79063356
:100A1C00D9B2FB790122184600F0A6F9DBE0B979CE
:100A2C00FB790122184600F09FF9BB790133D9B24A
:100A3C00FB790122184600F097F9BB790233D9B241
:100A4C00FB790122184600F08FF9BB790333D9B238
:100A5C00FB790022184600F087F9BB790433D9B230
:100A6C00FB790022184600F07FF9BB790533D9B227
:100A7C00FB790022184600F077F9BB790633D9B21E
:100A8C00FB790022184600F06FF9A4E0B979FB79E4
:100A9C000122184600F068F9BB790133D9B2FB7911
:100AAC000122184600F060F9BB790233D9B2FB7908
:100ABC000122184600F058F9BB790333D9B2FB79FF
:100ACC000122184600F050F9BB790433D9B2FB79F6
:100ADC000122184600F048F9BB790533D9B2FB79ED
:100AEC000122184600F040F9BB790633D9B2FB79E4
:100AFC000122184600F038F96DE0B979FB79012232
:100B0C00184600F031F9BB790133D9B2FB790122D7
:100B1C00184600F029F9BB790233D9B2FB790122CE
:100B2C00184600F021F9BB790333D9B2FB790122C5
:100B3C00184600F019F9BB790433D9B2FB790022BD
:100B4C00184600F011F9BB790533D9B2FB790122B3
:100B5C00184600F009F9BB790633D9B2FB790122AA
:100B6C00184600F001F936E0B979FB7901221846F4
:100B7C0000F0FAF8BB790133D9B2FB79012218469F
:100B8C0000F0F2F8BB790233D9B2FB790122184696
:100B9C0000F0EAF8BB790333D9B2FB79012218468D
:100BAC0000F0E2F8BB790433D9B2FB790122184684
:100BBC0000F0DAF8BB790533D9B2FB79012218467B
:100BCC0000F0D2F8BB790633D9B2FB790022184673
:100BDC0000F0CAF800BF00BF0837BD4680BD00BF9B
:100BEC0080B400AF044B1B68034A43F0010313604D
:100BFC0000BFBD4680BC70470038024080B485B051
:100C0C0000AF0346FB71FB795B09FB73FB7903F0C7
:100C1C001F03BB73FB7B032B36D801A252F823F0C6
:100C2C003D0C0008530C0008690C00087F0C0008F0
:100C3C00184B1B68BA7B012101FA02F21146154AC6
:100C4C000B43136021E0144B1B68BA7B012101FAA2
:100C5C0002F21146104A0B43136016E00F4B1B684F
:100C6C00BA7B012101FA02F211460C4A0B431360C4
:100C7C000BE00B4B1B68BA7B012101FA02F2114607
:100C8C00074A0B43136000E000BF00BF1437BD469A
:100C9C0080BC704730380240343802404038024043
:100CAC004438024090B486B000AF04460846114662
:100CBC001A462346FB710346BB710B467B711346E8
:100CCC003B71FB79413BFB75FB7D264A52F8233087
:100CDC003B613B7903F00103FB733B795B08BB730E
:100CEC003B691B68BA795200032101FA02F2D24324
:100CFC001A403B691A603B691B687979BA795200D2
:100D0C0001FA02F21A433B691A603B695B68BA79D3
:100D1C00012101FA02F2D2431A403B695A603B6945
:100D2C005B68F97BBA7901FA02F21A433B695A60A3
:100D3C003B69DB68BA795200032101FA02F2D24313
:100D4C001A403B69DA603B69DB68B97BBA795200BF
:100D5C0001FA02F21A433B69DA6000BF1837BD464C
:100D6C0090BC70470C00002080B485B000AF0346E7
:100D7C00FB710B46BB7113467B71FB79413BFB73DB
:100D8C00FB7B0E4A52F82330BB60BB685B69BA79B7
:100D9C00012101FA02F2D2431A40BB685A61BB68C6
:100DAC005B697979BA7901FA02F21A43BB685A6124
:100DBC0000BF1437BD4680BC704700BF0C0000203C
:100DCC0090B585B000AF0446084611461A46234636
:100DDC00FB710346BB710B467B7113463B71FB7970
:100DEC00413B032B1AD801A252F823F0090E00083C
:100DFC00110E0008190E0008210E00080020FFF744
:100E0C00FDFE0BE00120FFF7F9FE07E00220FFF7E3
:100E1C00F5FE03E00320FFF7F1FE00BF3B797A7982
:100E2C00B979F879FFF73EFF6E20FFF7E7FEBB7943
:100E3C0003F00303FB60BB799B08FB72FB79413B1E
:100E4C00BB72FB7A032B6BD801A252F823F000BFC4
:100E5C006D0E00089D0E0008CD0E0008FD0E00085A
:100E6C006D4B1B68FA6892000F2101FA02F2D24313
:100E7C001146694A0B401360674B1B68B97AFA68D4
:100E8C00920001FA02F21146634A0B43136047E0E9
:100E9C00624B1B68FA6892000F2101FA02F2D243EE
:100EAC0011465E4A0B4013605C4B1B68B97AFA68BA
:100EBC00920001FA02F21146584A0B4313602FE0DC
:100ECC00574B1B68FA6892000F2101FA02F2D243C9
:100EDC001146534A0B401360514B1B68B97AFA68A0
:100EEC00920001FA02F211464D4A0B43136017E0CF
:100EFC004C4B1B68FA6892000F2101FA02F2D243A4
:100F0C001146484A0B401360464B1B68B97AFA6885
:100F1C00920001FA02F21146424A0B43136000BFE1
:100F2C00414B9B68BA79012101FA02F2D243114676
:100F3C003D4A0B4093603C4BDB68BA79012101FAC6
:100F4C0002F2D2431146384A0B40D36097F8203056
:100F5C00022B1CD0022B2FDC002B02D0012B0BD030
:100F6C002AE0314B9B68BA79012101FA02F2114651
:100F7C002D4A0B4393601FE02B4BDB68BA790121A0
:100F8C0001FA02F21146284A0B43D36014E0264BB7
:100F9C009B68BA79012101FA02F21146224A0B43ED
:100FAC009360214BDB68BA79012101FA02F21146F8
:100FBC001D4A0B43D36000BFBB7906337B72BB79F0
:100FCC001F2B0AD8194B1B687A7A012101FA02F2FD
:100FDC001146164A0B43136019E0BB793F2B0BD813
:100FEC00134B1B68BA79203A012101FA02F211461F
:100FFC000F4A0B4313600AE00E4B1B68BA79403A58
:10100C00012101FA02F211460A4A0B43136000BF98
:10101C001437BD4690BD00BF083801400C38014064
:10102C001038014014380140003C014000E100E060
:10103C0004E100E008E100E080B483B000AF0346B7
:10104C00FB71074B1B68FA79012101FA02F2114678
:10105C00034A0B43136000BF0C37BD4680BC70477E
:10106C00003C014080B483B000AF0346FB71084BD9
:10107C001B68FA79012101FA02F2D2431146044AA3
:10108C000B40136000BF0C37BD4680BC704700BFDF
:10109C00003C0140000000000000000001020304BD
:0410AC000607080922
:1010B00018000020000000000024F400000002409E
:0810C000000402400008024098
:040000050800019559
:00000001FF
